{
  "contractName": "Ceers",
  "abi": [
    {
      "constant": true,
      "inputs": [
        {
          "name": "",
          "type": "address"
        }
      ],
      "name": "srsecondaryDetails",
      "outputs": [
        {
          "name": "adrs",
          "type": "address"
        },
        {
          "name": "board",
          "type": "string"
        },
        {
          "name": "institute",
          "type": "string"
        },
        {
          "name": "regNo",
          "type": "string"
        },
        {
          "name": "yearPassing",
          "type": "string"
        },
        {
          "name": "cgpa",
          "type": "string"
        },
        {
          "name": "percentage",
          "type": "uint256"
        },
        {
          "name": "specialization",
          "type": "string"
        }
      ],
      "payable": false,
      "stateMutability": "view",
      "type": "function"
    },
    {
      "constant": true,
      "inputs": [
        {
          "name": "",
          "type": "address"
        }
      ],
      "name": "individualsDetails",
      "outputs": [
        {
          "name": "adr",
          "type": "address"
        },
        {
          "name": "name",
          "type": "string"
        },
        {
          "name": "dob",
          "type": "string"
        },
        {
          "name": "aadhaar",
          "type": "uint256"
        }
      ],
      "payable": false,
      "stateMutability": "view",
      "type": "function"
    },
    {
      "constant": true,
      "inputs": [
        {
          "name": "",
          "type": "uint256"
        }
      ],
      "name": "iAddresses",
      "outputs": [
        {
          "name": "aadhaar",
          "type": "uint256"
        },
        {
          "name": "adrs",
          "type": "address"
        }
      ],
      "payable": false,
      "stateMutability": "view",
      "type": "function"
    },
    {
      "constant": true,
      "inputs": [
        {
          "name": "",
          "type": "address"
        }
      ],
      "name": "newEmploymentDetails",
      "outputs": [
        {
          "name": "adrs",
          "type": "address"
        },
        {
          "name": "details",
          "type": "string"
        }
      ],
      "payable": false,
      "stateMutability": "view",
      "type": "function"
    },
    {
      "constant": true,
      "inputs": [],
      "name": "candidate",
      "outputs": [
        {
          "name": "",
          "type": "string"
        }
      ],
      "payable": false,
      "stateMutability": "view",
      "type": "function"
    },
    {
      "constant": true,
      "inputs": [
        {
          "name": "",
          "type": "address"
        }
      ],
      "name": "secondaryDetails",
      "outputs": [
        {
          "name": "adrs",
          "type": "address"
        },
        {
          "name": "board",
          "type": "string"
        },
        {
          "name": "institute",
          "type": "string"
        },
        {
          "name": "regNo",
          "type": "string"
        },
        {
          "name": "yearPassing",
          "type": "string"
        },
        {
          "name": "cgpa",
          "type": "string"
        },
        {
          "name": "percentage",
          "type": "uint256"
        }
      ],
      "payable": false,
      "stateMutability": "view",
      "type": "function"
    },
    {
      "constant": true,
      "inputs": [],
      "name": "individualCount",
      "outputs": [
        {
          "name": "",
          "type": "uint256"
        }
      ],
      "payable": false,
      "stateMutability": "view",
      "type": "function"
    },
    {
      "constant": true,
      "inputs": [
        {
          "name": "",
          "type": "address"
        }
      ],
      "name": "newUniversityDetails",
      "outputs": [
        {
          "name": "adrs",
          "type": "address"
        },
        {
          "name": "details",
          "type": "string"
        }
      ],
      "payable": false,
      "stateMutability": "view",
      "type": "function"
    },
    {
      "constant": true,
      "inputs": [],
      "name": "idCount",
      "outputs": [
        {
          "name": "",
          "type": "uint256"
        }
      ],
      "payable": false,
      "stateMutability": "view",
      "type": "function"
    },
    {
      "constant": true,
      "inputs": [
        {
          "name": "_id",
          "type": "uint256"
        }
      ],
      "name": "getAddrsfromId",
      "outputs": [
        {
          "name": "",
          "type": "address"
        }
      ],
      "payable": false,
      "stateMutability": "view",
      "type": "function"
    },
    {
      "constant": true,
      "inputs": [
        {
          "name": "_id",
          "type": "uint256"
        }
      ],
      "name": "getindividualdetails",
      "outputs": [
        {
          "name": "",
          "type": "string"
        },
        {
          "name": "",
          "type": "string"
        },
        {
          "name": "",
          "type": "uint256"
        }
      ],
      "payable": false,
      "stateMutability": "view",
      "type": "function"
    },
    {
      "constant": true,
      "inputs": [
        {
          "name": "_id",
          "type": "uint256"
        }
      ],
      "name": "getNewEmploymentDetails",
      "outputs": [
        {
          "name": "",
          "type": "string"
        }
      ],
      "payable": false,
      "stateMutability": "view",
      "type": "function"
    },
    {
      "constant": true,
      "inputs": [
        {
          "name": "_id",
          "type": "uint256"
        }
      ],
      "name": "getSecondarydetails",
      "outputs": [
        {
          "name": "",
          "type": "string"
        },
        {
          "name": "",
          "type": "string"
        },
        {
          "name": "",
          "type": "string"
        },
        {
          "name": "",
          "type": "string"
        },
        {
          "name": "",
          "type": "string"
        },
        {
          "name": "",
          "type": "uint256"
        }
      ],
      "payable": false,
      "stateMutability": "view",
      "type": "function"
    },
    {
      "constant": true,
      "inputs": [
        {
          "name": "_id",
          "type": "uint256"
        }
      ],
      "name": "getSrSecondarydetails",
      "outputs": [
        {
          "name": "",
          "type": "string"
        },
        {
          "name": "",
          "type": "string"
        },
        {
          "name": "",
          "type": "string"
        },
        {
          "name": "",
          "type": "string"
        },
        {
          "name": "",
          "type": "string"
        },
        {
          "name": "",
          "type": "uint256"
        },
        {
          "name": "",
          "type": "string"
        }
      ],
      "payable": false,
      "stateMutability": "view",
      "type": "function"
    },
    {
      "constant": true,
      "inputs": [
        {
          "name": "_id",
          "type": "uint256"
        }
      ],
      "name": "getNewUniversitydetails",
      "outputs": [
        {
          "name": "",
          "type": "string"
        }
      ],
      "payable": false,
      "stateMutability": "view",
      "type": "function"
    },
    {
      "constant": true,
      "inputs": [
        {
          "name": "_id",
          "type": "uint256"
        }
      ],
      "name": "getNewEmployementdetails",
      "outputs": [
        {
          "name": "",
          "type": "string"
        }
      ],
      "payable": false,
      "stateMutability": "view",
      "type": "function"
    },
    {
      "constant": false,
      "inputs": [
        {
          "name": "_id",
          "type": "uint256"
        }
      ],
      "name": "insertAddrsfromId",
      "outputs": [],
      "payable": false,
      "stateMutability": "nonpayable",
      "type": "function"
    },
    {
      "constant": false,
      "inputs": [
        {
          "name": "_id",
          "type": "uint256"
        },
        {
          "name": "_name",
          "type": "string"
        },
        {
          "name": "_dob",
          "type": "string"
        }
      ],
      "name": "addIndividualsDetail",
      "outputs": [],
      "payable": false,
      "stateMutability": "nonpayable",
      "type": "function"
    },
    {
      "constant": false,
      "inputs": [
        {
          "name": "_id",
          "type": "uint256"
        },
        {
          "name": "_board",
          "type": "string"
        },
        {
          "name": "_institute",
          "type": "string"
        },
        {
          "name": "_regNo",
          "type": "string"
        },
        {
          "name": "_yearPassing",
          "type": "string"
        },
        {
          "name": "_cgpa",
          "type": "string"
        },
        {
          "name": "_percentage",
          "type": "uint256"
        },
        {
          "name": "_specialization",
          "type": "string"
        }
      ],
      "name": "addSrSecondaryEducationalDetails",
      "outputs": [],
      "payable": false,
      "stateMutability": "nonpayable",
      "type": "function"
    },
    {
      "constant": false,
      "inputs": [
        {
          "name": "_id",
          "type": "uint256"
        },
        {
          "name": "_board",
          "type": "string"
        },
        {
          "name": "_institute",
          "type": "string"
        },
        {
          "name": "_regNo",
          "type": "string"
        },
        {
          "name": "_yearPassing",
          "type": "string"
        },
        {
          "name": "_cgpa",
          "type": "string"
        },
        {
          "name": "_percentage",
          "type": "uint256"
        }
      ],
      "name": "addSecondaryEducationalDetails",
      "outputs": [],
      "payable": false,
      "stateMutability": "nonpayable",
      "type": "function"
    },
    {
      "constant": false,
      "inputs": [
        {
          "name": "_id",
          "type": "uint256"
        },
        {
          "name": "newCombined",
          "type": "string"
        }
      ],
      "name": "addNewUniversityDetails",
      "outputs": [],
      "payable": false,
      "stateMutability": "nonpayable",
      "type": "function"
    },
    {
      "constant": false,
      "inputs": [
        {
          "name": "_id",
          "type": "uint256"
        },
        {
          "name": "newCombined",
          "type": "string"
        }
      ],
      "name": "addNewEmployementDetails",
      "outputs": [],
      "payable": false,
      "stateMutability": "nonpayable",
      "type": "function"
    }
  ],
  "bytecode": "0x6080604052600060095534801561001557600080fd5b50613f37806100256000396000f300608060405260043610610128576000357c0100000000000000000000000000000000000000000000000000000000900463ffffffff1680631a1cb0271461012d5780631ea7ec2c1461024657806323f470f4146102b357806329a59372146103595780633acf649a1461066b5780634183d7be146108465780634a6ea654146108b95780634fd220d614610b165780635303e96414610c7857806357e7e5c414610cec5780636c8381f814610ddb578063703293b714610e6b578063706b24011461111157806379a12e6c146113da5780637b360965146114935780637c269ac2146114be57806399a0370914611531578063a06672ee146115d7578063c779a03514611604578063cdbf6bcc146116f3578063d2779bf114611888578063e6e462381461192e575b600080fd5b34801561013957600080fd5b5061015860048036038101908080359060200190929190505050611959565b604051808060200180602001848152602001838103835286818151815260200191508051906020019080838360005b838110156101a2578082015181840152602081019050610187565b50505050905090810190601f1680156101cf5780820380516001836020036101000a031916815260200191505b50838103825285818151815260200191508051906020019080838360005b838110156102085780820151818401526020810190506101ed565b50505050905090810190601f1680156102355780820380516001836020036101000a031916815260200191505b509550505050505060405180910390f35b34801561025257600080fd5b5061027160048036038101908080359060200190929190505050611b77565b604051808273ffffffffffffffffffffffffffffffffffffffff1673ffffffffffffffffffffffffffffffffffffffff16815260200191505060405180910390f35b3480156102bf57600080fd5b506102de60048036038101908080359060200190929190505050611bb7565b6040518080602001828103825283818151815260200191508051906020019080838360005b8381101561031e578082015181840152602081019050610303565b50505050905090810190601f16801561034b5780820380516001836020036101000a031916815260200191505b509250505060405180910390f35b34801561036557600080fd5b5061039a600480360381019080803573ffffffffffffffffffffffffffffffffffffffff169060200190929190505050611ca9565b604051808973ffffffffffffffffffffffffffffffffffffffff1673ffffffffffffffffffffffffffffffffffffffff16815260200180602001806020018060200180602001806020018881526020018060200187810387528e818151815260200191508051906020019080838360005b8381101561042657808201518184015260208101905061040b565b50505050905090810190601f1680156104535780820380516001836020036101000a031916815260200191505b5087810386528d818151815260200191508051906020019080838360005b8381101561048c578082015181840152602081019050610471565b50505050905090810190601f1680156104b95780820380516001836020036101000a031916815260200191505b5087810385528c818151815260200191508051906020019080838360005b838110156104f25780820151818401526020810190506104d7565b50505050905090810190601f16801561051f5780820380516001836020036101000a031916815260200191505b5087810384528b818151815260200191508051906020019080838360005b8381101561055857808201518184015260208101905061053d565b50505050905090810190601f1680156105855780820380516001836020036101000a031916815260200191505b5087810383528a818151815260200191508051906020019080838360005b838110156105be5780820151818401526020810190506105a3565b50505050905090810190601f1680156105eb5780820380516001836020036101000a031916815260200191505b50878103825288818151815260200191508051906020019080838360005b83811015610624578082015181840152602081019050610609565b50505050905090810190601f1680156106515780820380516001836020036101000a031916815260200191505b509e50505050505050505050505050505060405180910390f35b34801561067757600080fd5b5061084460048036038101908080359060200190929190803590602001908201803590602001908080601f0160208091040260200160405190810160405280939291908181526020018383808284378201915050505050509192919290803590602001908201803590602001908080601f0160208091040260200160405190810160405280939291908181526020018383808284378201915050505050509192919290803590602001908201803590602001908080601f0160208091040260200160405190810160405280939291908181526020018383808284378201915050505050509192919290803590602001908201803590602001908080601f0160208091040260200160405190810160405280939291908181526020018383808284378201915050505050509192919290803590602001908201803590602001908080601f016020809104026020016040519081016040528093929190818152602001838380828437820191505050505050919291929080359060200190929190803590602001908201803590602001908080601f01602080910402602001604051908101604052809392919081815260200183838082843782019150505050505091929192905050506120a1565b005b34801561085257600080fd5b506108b760048036038101908080359060200190929190803590602001908201803590602001908080601f016020809104026020016040519081016040528093929190818152602001838380828437820191505050505050919291929050505061224b565b005b3480156108c557600080fd5b506108e46004803603810190808035906020019092919050505061243b565b60405180806020018060200180602001806020018060200187815260200186810386528c818151815260200191508051906020019080838360005b8381101561093a57808201518184015260208101905061091f565b50505050905090810190601f1680156109675780820380516001836020036101000a031916815260200191505b5086810385528b818151815260200191508051906020019080838360005b838110156109a0578082015181840152602081019050610985565b50505050905090810190601f1680156109cd5780820380516001836020036101000a031916815260200191505b5086810384528a818151815260200191508051906020019080838360005b83811015610a065780820151818401526020810190506109eb565b50505050905090810190601f168015610a335780820380516001836020036101000a031916815260200191505b50868103835289818151815260200191508051906020019080838360005b83811015610a6c578082015181840152602081019050610a51565b50505050905090810190601f168015610a995780820380516001836020036101000a031916815260200191505b50868103825288818151815260200191508051906020019080838360005b83811015610ad2578082015181840152602081019050610ab7565b50505050905090810190601f168015610aff5780820380516001836020036101000a031916815260200191505b509b50505050505050505050505060405180910390f35b348015610b2257600080fd5b50610b57600480360381019080803573ffffffffffffffffffffffffffffffffffffffff169060200190929190505050612900565b604051808573ffffffffffffffffffffffffffffffffffffffff1673ffffffffffffffffffffffffffffffffffffffff1681526020018060200180602001848152602001838103835286818151815260200191508051906020019080838360005b83811015610bd3578082015181840152602081019050610bb8565b50505050905090810190601f168015610c005780820380516001836020036101000a031916815260200191505b50838103825285818151815260200191508051906020019080838360005b83811015610c39578082015181840152602081019050610c1e565b50505050905090810190601f168015610c665780820380516001836020036101000a031916815260200191505b50965050505050505060405180910390f35b348015610c8457600080fd5b50610ca360048036038101908080359060200190929190505050612a80565b604051808381526020018273ffffffffffffffffffffffffffffffffffffffff1673ffffffffffffffffffffffffffffffffffffffff1681526020019250505060405180910390f35b348015610cf857600080fd5b50610d2d600480360381019080803573ffffffffffffffffffffffffffffffffffffffff169060200190929190505050612ac4565b604051808373ffffffffffffffffffffffffffffffffffffffff1673ffffffffffffffffffffffffffffffffffffffff16815260200180602001828103825283818151815260200191508051906020019080838360005b83811015610d9f578082015181840152602081019050610d84565b50505050905090810190601f168015610dcc5780820380516001836020036101000a031916815260200191505b50935050505060405180910390f35b348015610de757600080fd5b50610df0612ba0565b6040518080602001828103825283818151815260200191508051906020019080838360005b83811015610e30578082015181840152602081019050610e15565b50505050905090810190601f168015610e5d5780820380516001836020036101000a031916815260200191505b509250505060405180910390f35b348015610e7757600080fd5b50610eac600480360381019080803573ffffffffffffffffffffffffffffffffffffffff169060200190929190505050612c3e565b604051808873ffffffffffffffffffffffffffffffffffffffff1673ffffffffffffffffffffffffffffffffffffffff168152602001806020018060200180602001806020018060200187815260200186810386528c818151815260200191508051906020019080838360005b83811015610f34578082015181840152602081019050610f19565b50505050905090810190601f168015610f615780820380516001836020036101000a031916815260200191505b5086810385528b818151815260200191508051906020019080838360005b83811015610f9a578082015181840152602081019050610f7f565b50505050905090810190601f168015610fc75780820380516001836020036101000a031916815260200191505b5086810384528a818151815260200191508051906020019080838360005b83811015611000578082015181840152602081019050610fe5565b50505050905090810190601f16801561102d5780820380516001836020036101000a031916815260200191505b50868103835289818151815260200191508051906020019080838360005b8381101561106657808201518184015260208101905061104b565b50505050905090810190601f1680156110935780820380516001836020036101000a031916815260200191505b50868103825288818151815260200191508051906020019080838360005b838110156110cc5780820151818401526020810190506110b1565b50505050905090810190601f1680156110f95780820380516001836020036101000a031916815260200191505b509c5050505050505050505050505060405180910390f35b34801561111d57600080fd5b5061113c60048036038101908080359060200190929190505050612f98565b6040518080602001806020018060200180602001806020018881526020018060200187810387528e818151815260200191508051906020019080838360005b8381101561119657808201518184015260208101905061117b565b50505050905090810190601f1680156111c35780820380516001836020036101000a031916815260200191505b5087810386528d818151815260200191508051906020019080838360005b838110156111fc5780820151818401526020810190506111e1565b50505050905090810190601f1680156112295780820380516001836020036101000a031916815260200191505b5087810385528c818151815260200191508051906020019080838360005b83811015611262578082015181840152602081019050611247565b50505050905090810190601f16801561128f5780820380516001836020036101000a031916815260200191505b5087810384528b818151815260200191508051906020019080838360005b838110156112c85780820151818401526020810190506112ad565b50505050905090810190601f1680156112f55780820380516001836020036101000a031916815260200191505b5087810383528a818151815260200191508051906020019080838360005b8381101561132e578082015181840152602081019050611313565b50505050905090810190601f16801561135b5780820380516001836020036101000a031916815260200191505b50878103825288818151815260200191508051906020019080838360005b83811015611394578082015181840152602081019050611379565b50505050905090810190601f1680156113c15780820380516001836020036101000a031916815260200191505b509d505050505050505050505050505060405180910390f35b3480156113e657600080fd5b5061149160048036038101908080359060200190929190803590602001908201803590602001908080601f0160208091040260200160405190810160405280939291908181526020018383808284378201915050505050509192919290803590602001908201803590602001908080601f0160208091040260200160405190810160405280939291908181526020018383808284378201915050505050509192919290505050613542565b005b34801561149f57600080fd5b506114a8613675565b6040518082815260200191505060405180910390f35b3480156114ca57600080fd5b5061152f60048036038101908080359060200190929190803590602001908201803590602001908080601f016020809104026020016040519081016040528093929190818152602001838380828437820191505050505050919291929050505061367b565b005b34801561153d57600080fd5b5061155c6004803603810190808035906020019092919050505061386b565b6040518080602001828103825283818151815260200191508051906020019080838360005b8381101561159c578082015181840152602081019050611581565b50505050905090810190601f1680156115c95780820380516001836020036101000a031916815260200191505b509250505060405180910390f35b3480156115e357600080fd5b506116026004803603810190808035906020019092919050505061395d565b005b34801561161057600080fd5b50611645600480360381019080803573ffffffffffffffffffffffffffffffffffffffff169060200190929190505050613a11565b604051808373ffffffffffffffffffffffffffffffffffffffff1673ffffffffffffffffffffffffffffffffffffffff16815260200180602001828103825283818151815260200191508051906020019080838360005b838110156116b757808201518184015260208101905061169c565b50505050905090810190601f1680156116e45780820380516001836020036101000a031916815260200191505b50935050505060405180910390f35b3480156116ff57600080fd5b5061188660048036038101908080359060200190929190803590602001908201803590602001908080601f0160208091040260200160405190810160405280939291908181526020018383808284378201915050505050509192919290803590602001908201803590602001908080601f0160208091040260200160405190810160405280939291908181526020018383808284378201915050505050509192919290803590602001908201803590602001908080601f0160208091040260200160405190810160405280939291908181526020018383808284378201915050505050509192919290803590602001908201803590602001908080601f0160208091040260200160405190810160405280939291908181526020018383808284378201915050505050509192919290803590602001908201803590602001908080601f016020809104026020016040519081016040528093929190818152602001838380828437820191505050505050919291929080359060200190929190505050613aed565b005b34801561189457600080fd5b506118b360048036038101908080359060200190929190505050613c72565b6040518080602001828103825283818151815260200191508051906020019080838360005b838110156118f35780820151818401526020810190506118d8565b50505050905090810190601f1680156119205780820380516001836020036101000a031916815260200191505b509250505060405180910390f35b34801561193a57600080fd5b50611943613d64565b6040518082815260200191505060405180910390f35b60608060008061196885611b77565b9050600260008273ffffffffffffffffffffffffffffffffffffffff1673ffffffffffffffffffffffffffffffffffffffff168152602001908152602001600020600101600260008373ffffffffffffffffffffffffffffffffffffffff1673ffffffffffffffffffffffffffffffffffffffff168152602001908152602001600020600201600260008473ffffffffffffffffffffffffffffffffffffffff1673ffffffffffffffffffffffffffffffffffffffff16815260200190815260200160002060030154828054600181600116156101000203166002900480601f016020809104026020016040519081016040528092919081815260200182805460018160011615610100020316600290048015611ac65780601f10611a9b57610100808354040283529160200191611ac6565b820191906000526020600020905b815481529060010190602001808311611aa957829003601f168201915b50505050509250818054600181600116156101000203166002900480601f016020809104026020016040519081016040528092919081815260200182805460018160011615610100020316600290048015611b625780601f10611b3757610100808354040283529160200191611b62565b820191906000526020600020905b815481529060010190602001808311611b4557829003601f168201915b50505050509150935093509350509193909250565b60006001600083815260200190815260200160002060010160009054906101000a900473ffffffffffffffffffffffffffffffffffffffff169050919050565b60606000611bc483611b77565b9050600660008273ffffffffffffffffffffffffffffffffffffffff1673ffffffffffffffffffffffffffffffffffffffff1681526020019081526020016000206001018054600181600116156101000203166002900480601f016020809104026020016040519081016040528092919081815260200182805460018160011615610100020316600290048015611c9c5780601f10611c7157610100808354040283529160200191611c9c565b820191906000526020600020905b815481529060010190602001808311611c7f57829003601f168201915b5050505050915050919050565b60046020528060005260406000206000915090508060000160009054906101000a900473ffffffffffffffffffffffffffffffffffffffff1690806001018054600181600116156101000203166002900480601f016020809104026020016040519081016040528092919081815260200182805460018160011615610100020316600290048015611d7b5780601f10611d5057610100808354040283529160200191611d7b565b820191906000526020600020905b815481529060010190602001808311611d5e57829003601f168201915b505050505090806002018054600181600116156101000203166002900480601f016020809104026020016040519081016040528092919081815260200182805460018160011615610100020316600290048015611e195780601f10611dee57610100808354040283529160200191611e19565b820191906000526020600020905b815481529060010190602001808311611dfc57829003601f168201915b505050505090806003018054600181600116156101000203166002900480601f016020809104026020016040519081016040528092919081815260200182805460018160011615610100020316600290048015611eb75780601f10611e8c57610100808354040283529160200191611eb7565b820191906000526020600020905b815481529060010190602001808311611e9a57829003601f168201915b505050505090806004018054600181600116156101000203166002900480601f016020809104026020016040519081016040528092919081815260200182805460018160011615610100020316600290048015611f555780601f10611f2a57610100808354040283529160200191611f55565b820191906000526020600020905b815481529060010190602001808311611f3857829003601f168201915b505050505090806005018054600181600116156101000203166002900480601f016020809104026020016040519081016040528092919081815260200182805460018160011615610100020316600290048015611ff35780601f10611fc857610100808354040283529160200191611ff3565b820191906000526020600020905b815481529060010190602001808311611fd657829003601f168201915b505050505090806006015490806007018054600181600116156101000203166002900480601f0160208091040260200160405190810160405280929190818152602001828054600181600116156101000203166002900480156120975780601f1061206c57610100808354040283529160200191612097565b820191906000526020600020905b81548152906001019060200180831161207a57829003601f168201915b5050505050905088565b60006120ac89611b77565b9050610100604051908101604052808273ffffffffffffffffffffffffffffffffffffffff16815260200189815260200188815260200187815260200186815260200185815260200184815260200183815250600460008373ffffffffffffffffffffffffffffffffffffffff1673ffffffffffffffffffffffffffffffffffffffff16815260200190815260200160002060008201518160000160006101000a81548173ffffffffffffffffffffffffffffffffffffffff021916908373ffffffffffffffffffffffffffffffffffffffff16021790555060208201518160010190805190602001906121a1929190613e66565b5060408201518160020190805190602001906121be929190613e66565b5060608201518160030190805190602001906121db929190613e66565b5060808201518160040190805190602001906121f8929190613e66565b5060a0820151816005019080519060200190612215929190613e66565b5060c0820151816006015560e082015181600701908051906020019061223c929190613e66565b50905050505050505050505050565b60008061225784611b77565b9150600660008373ffffffffffffffffffffffffffffffffffffffff1673ffffffffffffffffffffffffffffffffffffffff168152602001908152602001600020600101905060408051908101604052808373ffffffffffffffffffffffffffffffffffffffff168152602001828560405160200180838054600181600116156101000203166002900480156123245780601f10612302576101008083540402835291820191612324565b820191906000526020600020905b815481529060010190602001808311612310575b505082805190602001908083835b6020831015156123575780518252602082019150602081019050602083039250612332565b6001836020036101000a03801982511681845116808217855250505050505090500192505050604051602081830303815290604052815250600660008473ffffffffffffffffffffffffffffffffffffffff1673ffffffffffffffffffffffffffffffffffffffff16815260200190815260200160002060008201518160000160006101000a81548173ffffffffffffffffffffffffffffffffffffffff021916908373ffffffffffffffffffffffffffffffffffffffff1602179055506020820151816001019080519060200190612431929190613e66565b5090505050505050565b606080606080606060008061244f88611b77565b9050600360008273ffffffffffffffffffffffffffffffffffffffff1673ffffffffffffffffffffffffffffffffffffffff168152602001908152602001600020600101600360008373ffffffffffffffffffffffffffffffffffffffff1673ffffffffffffffffffffffffffffffffffffffff168152602001908152602001600020600201600360008473ffffffffffffffffffffffffffffffffffffffff1673ffffffffffffffffffffffffffffffffffffffff168152602001908152602001600020600301600360008573ffffffffffffffffffffffffffffffffffffffff1673ffffffffffffffffffffffffffffffffffffffff168152602001908152602001600020600401600360008673ffffffffffffffffffffffffffffffffffffffff1673ffffffffffffffffffffffffffffffffffffffff168152602001908152602001600020600501600360008773ffffffffffffffffffffffffffffffffffffffff1673ffffffffffffffffffffffffffffffffffffffff16815260200190815260200160002060060154858054600181600116156101000203166002900480601f0160208091040260200160405190810160405280929190818152602001828054600181600116156101000203166002900480156126735780601f1061264857610100808354040283529160200191612673565b820191906000526020600020905b81548152906001019060200180831161265657829003601f168201915b50505050509550848054600181600116156101000203166002900480601f01602080910402602001604051908101604052809291908181526020018280546001816001161561010002031660029004801561270f5780601f106126e45761010080835404028352916020019161270f565b820191906000526020600020905b8154815290600101906020018083116126f257829003601f168201915b50505050509450838054600181600116156101000203166002900480601f0160208091040260200160405190810160405280929190818152602001828054600181600116156101000203166002900480156127ab5780601f10612780576101008083540402835291602001916127ab565b820191906000526020600020905b81548152906001019060200180831161278e57829003601f168201915b50505050509350828054600181600116156101000203166002900480601f0160208091040260200160405190810160405280929190818152602001828054600181600116156101000203166002900480156128475780601f1061281c57610100808354040283529160200191612847565b820191906000526020600020905b81548152906001019060200180831161282a57829003601f168201915b50505050509250818054600181600116156101000203166002900480601f0160208091040260200160405190810160405280929190818152602001828054600181600116156101000203166002900480156128e35780601f106128b8576101008083540402835291602001916128e3565b820191906000526020600020905b8154815290600101906020018083116128c657829003601f168201915b505050505091509650965096509650965096505091939550919395565b60026020528060005260406000206000915090508060000160009054906101000a900473ffffffffffffffffffffffffffffffffffffffff1690806001018054600181600116156101000203166002900480601f0160208091040260200160405190810160405280929190818152602001828054600181600116156101000203166002900480156129d25780601f106129a7576101008083540402835291602001916129d2565b820191906000526020600020905b8154815290600101906020018083116129b557829003601f168201915b505050505090806002018054600181600116156101000203166002900480601f016020809104026020016040519081016040528092919081815260200182805460018160011615610100020316600290048015612a705780601f10612a4557610100808354040283529160200191612a70565b820191906000526020600020905b815481529060010190602001808311612a5357829003601f168201915b5050505050908060030154905084565b60016020528060005260406000206000915090508060000154908060010160009054906101000a900473ffffffffffffffffffffffffffffffffffffffff16905082565b60066020528060005260406000206000915090508060000160009054906101000a900473ffffffffffffffffffffffffffffffffffffffff1690806001018054600181600116156101000203166002900480601f016020809104026020016040519081016040528092919081815260200182805460018160011615610100020316600290048015612b965780601f10612b6b57610100808354040283529160200191612b96565b820191906000526020600020905b815481529060010190602001808311612b7957829003601f168201915b5050505050905082565b60008054600181600116156101000203166002900480601f016020809104026020016040519081016040528092919081815260200182805460018160011615610100020316600290048015612c365780601f10612c0b57610100808354040283529160200191612c36565b820191906000526020600020905b815481529060010190602001808311612c1957829003601f168201915b505050505081565b60036020528060005260406000206000915090508060000160009054906101000a900473ffffffffffffffffffffffffffffffffffffffff1690806001018054600181600116156101000203166002900480601f016020809104026020016040519081016040528092919081815260200182805460018160011615610100020316600290048015612d105780601f10612ce557610100808354040283529160200191612d10565b820191906000526020600020905b815481529060010190602001808311612cf357829003601f168201915b505050505090806002018054600181600116156101000203166002900480601f016020809104026020016040519081016040528092919081815260200182805460018160011615610100020316600290048015612dae5780601f10612d8357610100808354040283529160200191612dae565b820191906000526020600020905b815481529060010190602001808311612d9157829003601f168201915b505050505090806003018054600181600116156101000203166002900480601f016020809104026020016040519081016040528092919081815260200182805460018160011615610100020316600290048015612e4c5780601f10612e2157610100808354040283529160200191612e4c565b820191906000526020600020905b815481529060010190602001808311612e2f57829003601f168201915b505050505090806004018054600181600116156101000203166002900480601f016020809104026020016040519081016040528092919081815260200182805460018160011615610100020316600290048015612eea5780601f10612ebf57610100808354040283529160200191612eea565b820191906000526020600020905b815481529060010190602001808311612ecd57829003601f168201915b505050505090806005018054600181600116156101000203166002900480601f016020809104026020016040519081016040528092919081815260200182805460018160011615610100020316600290048015612f885780601f10612f5d57610100808354040283529160200191612f88565b820191906000526020600020905b815481529060010190602001808311612f6b57829003601f168201915b5050505050908060060154905087565b6060806060806060600060606000612faf89611b77565b9050600460008273ffffffffffffffffffffffffffffffffffffffff1673ffffffffffffffffffffffffffffffffffffffff168152602001908152602001600020600101600460008373ffffffffffffffffffffffffffffffffffffffff1673ffffffffffffffffffffffffffffffffffffffff168152602001908152602001600020600201600460008473ffffffffffffffffffffffffffffffffffffffff1673ffffffffffffffffffffffffffffffffffffffff168152602001908152602001600020600301600460008573ffffffffffffffffffffffffffffffffffffffff1673ffffffffffffffffffffffffffffffffffffffff168152602001908152602001600020600401600460008673ffffffffffffffffffffffffffffffffffffffff1673ffffffffffffffffffffffffffffffffffffffff168152602001908152602001600020600501600460008773ffffffffffffffffffffffffffffffffffffffff1673ffffffffffffffffffffffffffffffffffffffff16815260200190815260200160002060060154600460008873ffffffffffffffffffffffffffffffffffffffff1673ffffffffffffffffffffffffffffffffffffffff168152602001908152602001600020600701868054600181600116156101000203166002900480601f0160208091040260200160405190810160405280929190818152602001828054600181600116156101000203166002900480156132155780601f106131ea57610100808354040283529160200191613215565b820191906000526020600020905b8154815290600101906020018083116131f857829003601f168201915b50505050509650858054600181600116156101000203166002900480601f0160208091040260200160405190810160405280929190818152602001828054600181600116156101000203166002900480156132b15780601f10613286576101008083540402835291602001916132b1565b820191906000526020600020905b81548152906001019060200180831161329457829003601f168201915b50505050509550848054600181600116156101000203166002900480601f01602080910402602001604051908101604052809291908181526020018280546001816001161561010002031660029004801561334d5780601f106133225761010080835404028352916020019161334d565b820191906000526020600020905b81548152906001019060200180831161333057829003601f168201915b50505050509450838054600181600116156101000203166002900480601f0160208091040260200160405190810160405280929190818152602001828054600181600116156101000203166002900480156133e95780601f106133be576101008083540402835291602001916133e9565b820191906000526020600020905b8154815290600101906020018083116133cc57829003601f168201915b50505050509350828054600181600116156101000203166002900480601f0160208091040260200160405190810160405280929190818152602001828054600181600116156101000203166002900480156134855780601f1061345a57610100808354040283529160200191613485565b820191906000526020600020905b81548152906001019060200180831161346857829003601f168201915b50505050509250808054600181600116156101000203166002900480601f0160208091040260200160405190810160405280929190818152602001828054600181600116156101000203166002900480156135215780601f106134f657610100808354040283529160200191613521565b820191906000526020600020905b81548152906001019060200180831161350457829003601f168201915b50505050509050975097509750975097509750975050919395979092949650565b600060076000815480929190600101919050555061355f8461395d565b61356884611b77565b90506080604051908101604052808273ffffffffffffffffffffffffffffffffffffffff16815260200184815260200183815260200185815250600260008373ffffffffffffffffffffffffffffffffffffffff1673ffffffffffffffffffffffffffffffffffffffff16815260200190815260200160002060008201518160000160006101000a81548173ffffffffffffffffffffffffffffffffffffffff021916908373ffffffffffffffffffffffffffffffffffffffff1602179055506020820151816001019080519060200190613644929190613e66565b506040820151816002019080519060200190613661929190613e66565b506060820151816003015590505050505050565b60075481565b60008061368784611b77565b9150600560008373ffffffffffffffffffffffffffffffffffffffff1673ffffffffffffffffffffffffffffffffffffffff168152602001908152602001600020600101905060408051908101604052808373ffffffffffffffffffffffffffffffffffffffff168152602001828560405160200180838054600181600116156101000203166002900480156137545780601f10613732576101008083540402835291820191613754565b820191906000526020600020905b815481529060010190602001808311613740575b505082805190602001908083835b6020831015156137875780518252602082019150602081019050602083039250613762565b6001836020036101000a03801982511681845116808217855250505050505090500192505050604051602081830303815290604052815250600560008473ffffffffffffffffffffffffffffffffffffffff1673ffffffffffffffffffffffffffffffffffffffff16815260200190815260200160002060008201518160000160006101000a81548173ffffffffffffffffffffffffffffffffffffffff021916908373ffffffffffffffffffffffffffffffffffffffff1602179055506020820151816001019080519060200190613861929190613e66565b5090505050505050565b6060600061387883611b77565b9050600560008273ffffffffffffffffffffffffffffffffffffffff1673ffffffffffffffffffffffffffffffffffffffff1681526020019081526020016000206001018054600181600116156101000203166002900480601f0160208091040260200160405190810160405280929190818152602001828054600181600116156101000203166002900480156139505780601f1061392557610100808354040283529160200191613950565b820191906000526020600020905b81548152906001019060200180831161393357829003601f168201915b5050505050915050919050565b6000613967613d6a565b905060408051908101604052808381526020018273ffffffffffffffffffffffffffffffffffffffff16815250600160008481526020019081526020016000206000820151816000015560208201518160010160006101000a81548173ffffffffffffffffffffffffffffffffffffffff021916908373ffffffffffffffffffffffffffffffffffffffff1602179055509050506008600081548092919060010191905055505050565b60056020528060005260406000206000915090508060000160009054906101000a900473ffffffffffffffffffffffffffffffffffffffff1690806001018054600181600116156101000203166002900480601f016020809104026020016040519081016040528092919081815260200182805460018160011615610100020316600290048015613ae35780601f10613ab857610100808354040283529160200191613ae3565b820191906000526020600020905b815481529060010190602001808311613ac657829003601f168201915b5050505050905082565b6000613af888611b77565b905060e0604051908101604052808273ffffffffffffffffffffffffffffffffffffffff16815260200188815260200187815260200186815260200185815260200184815260200183815250600360008373ffffffffffffffffffffffffffffffffffffffff1673ffffffffffffffffffffffffffffffffffffffff16815260200190815260200160002060008201518160000160006101000a81548173ffffffffffffffffffffffffffffffffffffffff021916908373ffffffffffffffffffffffffffffffffffffffff1602179055506020820151816001019080519060200190613be6929190613e66565b506040820151816002019080519060200190613c03929190613e66565b506060820151816003019080519060200190613c20929190613e66565b506080820151816004019080519060200190613c3d929190613e66565b5060a0820151816005019080519060200190613c5a929190613e66565b5060c082015181600601559050505050505050505050565b60606000613c7f83611b77565b9050600660008273ffffffffffffffffffffffffffffffffffffffff1673ffffffffffffffffffffffffffffffffffffffff1681526020019081526020016000206001018054600181600116156101000203166002900480601f016020809104026020016040519081016040528092919081815260200182805460018160011615610100020316600290048015613d575780601f10613d2c57610100808354040283529160200191613d57565b820191906000526020600020905b815481529060010190602001808311613d3a57829003601f168201915b5050505050915050919050565b60085481565b6000806000803342604051808373ffffffffffffffffffffffffffffffffffffffff1673ffffffffffffffffffffffffffffffffffffffff166c01000000000000000000000000028152601401828152602001925050506040518091039020925060009150600160140360ff1690505b6000600182011115613e5d576002600182601460ff1603030260100a8382601481101515613e0457fe5b1a7f0100000000000000000000000000000000000000000000000000000000000000027f010000000000000000000000000000000000000000000000000000000000000090040282019150808060019003915050613dda565b81935050505090565b828054600181600116156101000203166002900490600052602060002090601f016020900481019282601f10613ea757805160ff1916838001178555613ed5565b82800160010185558215613ed5579182015b82811115613ed4578251825591602001919060010190613eb9565b5b509050613ee29190613ee6565b5090565b613f0891905b80821115613f04576000816000905550600101613eec565b5090565b905600a165627a7a7230582084a37eaa41084c7f43f0a3764aae59ce5a0e5b0f0370e614961902b78435121f0029",
  "source": "pragma solidity ^0.4.25;\n\ncontract Ceers {\n    string public candidate;\n    struct idToAddressMapping {\n        uint256 aadhaar;\n        address adrs;\n    }\n    struct individualsDetail {\n        address adr;\n        string name;\n        string dob;\n        uint256 aadhaar;\n        //address adr;\n        //Employee emp;\n    }\n    struct University1 {\n        address adrs;\n        string details;\n    }\n    struct secondary {\n        //  address adrs;\n        address adrs;\n        //string type_name;\n        string board;\n        string institute;\n        string regNo;\n        string yearPassing;\n        string cgpa;\n        uint256 percentage;\n        // string specialization;\n    }\n    struct srSecondary {\n        address adrs;\n        //string type_name;\n        string board;\n        string institute;\n        string regNo;\n        string yearPassing;\n        string cgpa;\n        uint256 percentage;\n        string specialization;\n    }\n    // struct university {\n    //     address adrs;\n    //     //string type_name;\n    //     string University;\n    //     string institute;\n    //     string regNo;\n    //     string yearPassing;\n    //     string cgpa;\n    //     uint256 percentage;\n    //     string specialization;\n    // }\n    struct employee1 {\n        address adrs;\n        string details;\n    }\n    // struct employee {\n    //     address adrs;\n    //     string Cname;\n    //     string regNo;\n    //     string Eid;\n    //     string dateJoining;\n    //     string levelJoining;\n    //     string dateLeaving;\n    //     string levelLeaving;\n    // }\n\n    //request status\n    enum reqStatus {Default, pending, reject, approved}\n    mapping(uint256 => idToAddressMapping) public iAddresses;\n\n    //mapping(uint => address[]) public iAddress;\n    mapping(address => individualsDetail) public individualsDetails;\n    mapping(address => secondary) public secondaryDetails;\n    mapping(address => srSecondary) public srsecondaryDetails;\n    mapping(address => University1) public newUniversityDetails;\n    mapping(address => employee1) public newEmploymentDetails;\n    //mapping(address => university) public universityDetails;\n    //mapping(address => employee) public employeeDetails;\n    uint256 public individualCount;\n    uint256 public idCount;\n    //address[] public allAddesses;\n\n    uint256 randNonce = 0;\n\n    function randMod() internal returns (address) {\n        bytes20 b = bytes20(keccak256(msg.sender, now));\n        uint256 addr = 0;\n        for (uint256 index = b.length - 1; index + 1 > 0; index--) {\n            addr += uint256(b[index]) * (16**((b.length - index - 1) * 2));\n        }\n\n        return address(addr);\n    }\n\n    function getAddrsfromId(uint256 _id) public constant returns (address) {\n        return iAddresses[_id].adrs;\n    }\n\n    function getindividualdetails(uint256 _id)\n        public\n        constant\n        returns (\n            string,\n            string,\n            uint256\n        )\n    {\n        address _adr = getAddrsfromId(_id);\n        return (\n            individualsDetails[_adr].name,\n            individualsDetails[_adr].dob,\n            individualsDetails[_adr].aadhaar\n        );\n    }\n\n    function getNewEmploymentDetails(uint256 _id)\n        public\n        constant\n        returns (string)\n    {\n        address _adr = getAddrsfromId(_id);\n        return (newEmploymentDetails[_adr].details);\n    }\n\n    // function getEmployemntdetails(uint256 _id)\n    //     public\n    //     constant\n    //     returns (\n    //         string,\n    //         string,\n    //         string,\n    //         string,\n    //         string,\n    //         string,\n    //         string\n    //     )\n    // {\n    //     address _adr = getAddrsfromId(_id);\n    //     return (\n    //         employeeDetails[_adr].Cname,\n    //         employeeDetails[_adr].regNo,\n    //         employeeDetails[_adr].Eid,\n    //         employeeDetails[_adr].dateJoining,\n    //         employeeDetails[_adr].levelJoining,\n    //         employeeDetails[_adr].dateLeaving,\n    //         employeeDetails[_adr].levelLeaving\n    //     );\n    // }\n\n    function getSecondarydetails(uint256 _id)\n        public\n        constant\n        returns (\n            string,\n            string,\n            string,\n            string,\n            string,\n            uint256\n        )\n    {\n        address _adr = getAddrsfromId(_id);\n        return (\n            secondaryDetails[_adr].board,\n            secondaryDetails[_adr].institute,\n            secondaryDetails[_adr].regNo,\n            secondaryDetails[_adr].yearPassing,\n            secondaryDetails[_adr].cgpa,\n            secondaryDetails[_adr].percentage\n        );\n    }\n\n    function getSrSecondarydetails(uint256 _id)\n        public\n        constant\n        returns (\n            //string,\n            string,\n            string,\n            string,\n            string,\n            string,\n            uint256,\n            string\n        )\n    {\n        address _adr = getAddrsfromId(_id);\n        return (\n            //srsecondaryDetails[_adr].type_name,\n            srsecondaryDetails[_adr].board,\n            srsecondaryDetails[_adr].institute,\n            srsecondaryDetails[_adr].regNo,\n            srsecondaryDetails[_adr].yearPassing,\n            srsecondaryDetails[_adr].cgpa,\n            srsecondaryDetails[_adr].percentage,\n            srsecondaryDetails[_adr].specialization\n        );\n    }\n\n  /*  function getUniversitydetails(uint256 _id)\n        public\n        constant\n        returns (\n            string,\n            string,\n            string,\n            string,\n            string,\n            uint256,\n            string\n        )\n    {\n        address _adr = getAddrsfromId(_id);\n        return (\n            universityDetails[_adr].University,\n            universityDetails[_adr].institute,\n            universityDetails[_adr].regNo,\n            universityDetails[_adr].yearPassing,\n            universityDetails[_adr].cgpa,\n            universityDetails[_adr].percentage,\n            universityDetails[_adr].specialization\n        );\n    }\n*/\n    function getNewUniversitydetails(uint256 _id)\n        public\n        constant\n        returns (string)\n    {\n        address _adr = getAddrsfromId(_id);\n        return (newUniversityDetails[_adr].details);\n    }\n\n    function getNewEmployementdetails(uint256 _id)\n        public\n        constant\n        returns (string)\n    {\n        address _adr = getAddrsfromId(_id);\n        return (newEmploymentDetails[_adr].details);\n    }\n\n    function insertAddrsfromId(uint256 _id) {\n        //generate addrress\n        address a = randMod();\n        iAddresses[_id] = idToAddressMapping(_id, a);\n        //allAddesses[idCount] = a;\n        idCount++;\n    }\n\n    function addIndividualsDetail(\n        uint256 _id,\n        string _name,\n        string _dob\n    ) public {\n        individualCount++;\n        insertAddrsfromId(_id);\n        address _address = getAddrsfromId(_id);\n        individualsDetails[_address] = individualsDetail(\n            _address,\n            _name,\n            _dob,\n            _id\n        );\n    }\n\n    function addSrSecondaryEducationalDetails(\n        uint256 _id,\n        //string _type_name,\n        string _board,\n        string _institute,\n        string _regNo,\n        string _yearPassing,\n        string _cgpa,\n        uint256 _percentage,\n        string _specialization\n    ) {\n        address _address = getAddrsfromId(_id);\n        srsecondaryDetails[_address] = srSecondary(\n            _address,\n            _board,\n            _institute,\n            _regNo,\n            _yearPassing,\n            _cgpa,\n            _percentage,\n            _specialization\n        );\n    }\n\n    function addSecondaryEducationalDetails(\n        uint256 _id,\n        // string _type_name,\n        string _board,\n        string _institute,\n        string _regNo,\n        string _yearPassing,\n        string _cgpa,\n        uint256 _percentage // string _specialization\n    ) {\n        address _address = getAddrsfromId(_id);\n        secondaryDetails[_address] = secondary(\n            _address,\n            //  _type_name,\n            _board,\n            _institute,\n            _regNo,\n            _yearPassing,\n            _cgpa,\n            _percentage\n            // _specialization\n        );\n    }\n\n    // function addUniversityDetails(\n    //     uint256 _id,\n    //     //string _type_name,\n    //     string _University,\n    //     string _institute,\n    //     string _regNo,\n    //     string _yearPassing,\n    //     string _cgpa,\n    //     uint256 _percentage,\n    //     string _specialization\n    // ) {\n    //     address _address = getAddrsfromId(_id);\n    //     universityDetails[_address] = university(\n    //         _address,\n    //         //  _type_name,\n    //         _University,\n    //         _institute,\n    //         _regNo,\n    //         _yearPassing,\n    //         _cgpa,\n    //         _percentage,\n    //         _specialization\n    //     );\n    // }\n\n    function addNewUniversityDetails(\n        uint256 _id,\n        //string _type_name,\n        string newCombined\n    ) {\n        address _address = getAddrsfromId(_id);\n        string oldCombined = newUniversityDetails[_address].details;\n       // string combined = abi.encodePacked(oldCombined, newCombined);\n        newUniversityDetails[_address] = University1(_address, string(abi.encodePacked(oldCombined, newCombined)));\n        //newUniversityDetails[_address] = University1(_address, \"test123\");\n    }\n\n    function addNewEmployementDetails(\n        uint256 _id,\n        //string _type_name,\n        string newCombined\n    ) {\n        address _address = getAddrsfromId(_id);\n        string oldCombined = newEmploymentDetails[_address].details;\n        //string combined = abi.encodePacked(oldCombined, newCombined);\n        newEmploymentDetails[_address] = employee1(_address, string(abi.encodePacked(oldCombined, newCombined)));\n        //newUniversityDetails[_address] = University1(_address, \"test123\");\n    }\n\n    // function addEmploymentDetails(\n    //     uint256 _id,\n    //     string _Cname,\n    //     string _regNo,\n    //     string _Eid,\n    //     string _dateJoining,\n    //     string _levelJoining,\n    //     string _dateLeaving,\n    //     string _levelLeaving\n    // ) {\n    //     address _address = getAddrsfromId(_id);\n    //     employeeDetails[_address] = employee(\n    //         _address,\n    //         _Cname,\n    //         _regNo,\n    //         _Eid,\n    //         _dateJoining,\n    //         _levelJoining,\n    //         _dateLeaving,\n    //         _levelLeaving\n    //     );\n    // }\n}\n",
  "sourcePath": "/home/deepit/projects/project/ceers/ceers/contracts/Ceers.sol",
  "compiler": {
    "name": "solc",
    "version": "0.4.25+commit.59dbf8f1.Emscripten.clang"
  },
  "schemaVersion": "3.3.3",
  "updatedAt": "2021-03-25T15:23:51.578Z",
  "networkType": "ethereum",
  "devdoc": {
    "methods": {}
  },
  "userdoc": {
    "methods": {}
  }
}